:1000000002000E120112750A1A80FE02009A787F11
:10001000E4F6D8FD75810A020055020003E493A3BB
:10002000F8E493A34003F68001F208DFF48029E4AA
:1000300093A3F85407240CC8C333C4540F4420C8F6
:10004000834004F456800146F6DFE4800B0102048D
:10005000081020408090010AE47E019360BCA3FF59
:10006000543F30E509541FFEE493A360010ECF54C2
:10007000C025E060A840B8E493A3FAE493A3F8E4B1
:1000800093A3C8C582C8CAC583CAF0A3C8C582C81D
:10009000CAC583CADFE9DEE780BEC0E0C0F0C0D0D9
:1000A00075D000C000C006C007C28C30A01CC2A022
:1000B000C374FF950AFFE49400FEEF7802C333CEC9
:1000C00033CED8F9F5098E08800DD2A0E50A75F077
:1000D00004A485F008F509E508FFC374FF9FF58CBB
:1000E000C374FF9509F58AC28DD28CD007D006D093
:1000F00000D0D0D0F0D0E0325389F0438901E4F54C
:100100008CF58AD2A9D2AFD28C22010A0002080053
:080110000000E4F50A0200F80A
:00000001FF
