:10000000020097E4F508D208E5089000A393F5A054
:1000100085A020A20282038201405C3008EAE5202C
:1000200064E76048E520647D6042E52064EB603C65
:10003000E52064ED6036E52064D76030E52064DBC0
:10004000602AE52064DD6024E52064B7601EE520B9
:1000500064BB6018E52064BD6012E5206477600C25
:10006000E520647B6006E520647D709CC280120000
:100070008AD280C2088091E508C394035004050821
:100080008003E4F508D208020008E4FFE4FE0EBE97
:10009000BDFC0FBFC8F622787FE4F6D8FD7581213C
:0700A000020003EFDFBF7F48
:00000001FF
