:1000000002001E12010AE50890013A93FFE50890EC
:080010000139935FF5A080EEB9
:10001B000200AA787FE4F6D8FD75810B0200650219
:10002B000003E493A3F8E493A34003F68001F208E2
:10003B00DFF48029E493A3F85407240CC8C333C41A
:10004B00540F4420C8834004F456800146F6DFE485
:10005B00800B010204081020408090012EE47E01E9
:10006B009360BCA3FF543F30E509541FFEE493A3F8
:10007B0060010ECF54C025E060A840B8E493A3FA0A
:10008B00E493A3F8E493A3C8C582C8CAC583CAF096
:10009B00A3C8C582C8CAC583CADFE9DEE780BEC074
:1000AB00E0C0F0C0D075D000C000C004C005C006D1
:1000BB00C007050AE50A70020509AF0B7E007C013B
:1000CB007DC212011CEFB50A25EEB50921E508C367
:1000DB009406500405088003750800750900750A1D
:1000EB0000E50BB40105750B028003750B01D007FE
:1000FB00D006D005D004D000D0D0D0F0D0E032E480
:10010B00F58BF58D53890F438920D2ABD2AFD28EAD
:10011B0022EF8DF0A4A8F0CF8CF0A428CE8DF0A404
:10012B002EFE22010800010B0102090000007FBF17
:06013B00DFEFF7FBFDFE03
:00000001FF
