:10000000020118E4F510F511D20AE5109001D89319
:10001000F5A085A020A202820382015003020105FF
:10002000300AE7C20AE511D39403500B7408251176
:10003000F8A6A0051180D3E520647D7047F5117402
:100040000C2511F8E6FF74082511F8E66F6004D25C
:100050000880070511E511B404E5200814E4F51142
:100060001201A4D2801201A60511E511C394064025
:10007000EFE4F51174082511F876FF0511E511B4C8
:1000800004F28079E52064777062F511740C251113
:10009000F8E6FF74082511F8E66F6004D2088007BF
:1000A0000511E511B404E5200840E4F5111201A49E
:1000B000D2801201A60511E511D3940240EFD209B6
:1000C0001201A6C209E4F5111201A4D2801201A600
:1000D0000511E511D3940240EFE4F51174082511E0
:1000E000F876FF0511E511B404F28011E4F51174FE
:1000F000082511F876FF0511E511B404F2E4F511B5
:10010000C20802000AE510C39403500405108003DE
:10011000E4F510D20A02000A787FE4F6D8FD758172
:100120002102015F020003E493A3F8E493A34003D8
:10013000F68001F208DFF48029E493A3F854072441
:100140000CC8C333C4540F4420C8834004F4568001
:100150000146F6DFE4800B01020408102040809085
:1001600001C7E47E019360BCA3FF543F30E509540E
:100170001FFEE493A360010ECF54C025E060A840A9
:10018000B8E493A3FAE493A3F8E493A3C8C582C8A0
:10019000CAC583CAF0A3C8C582C8CAC583CADFE975
:1001A000DEE780BEC280A209920B200B0DE4FEE4C4
:1001B000FF0FBF5EFC0EBEC8F622E4FEE4FF0FBFD9
:1001C000BDFC0EBEC8F622040CBD7BEBDD0408FFAF
:0C01D000FFFFFFC109C10800EFDFBF7F87
:00000001FF
