:1000000002001EE4F58BF58D53890F438920D2AB96
:05001000D2AFD28E22E8
:10001B000200AA787FE4F6D8FD75810A020065021A
:10002B0000D7E493A3F8E493A34003F68001F2080E
:10003B00DFF48029E493A3F85407240CC8C333C41A
:10004B00540F4420C8834004F456800146F6DFE485
:10005B00800B01020408102040809000E4E47E0134
:10006B009360BCA3FF543F30E509541FFEE493A3F8
:10007B0060010ECF54C025E060A840B8E493A3FA0A
:10008B00E493A3F8E493A3C8C582C8CAC583CAF096
:10009B00A3C8C582C8CAC583CADFE9DEE780BEC074
:1000AB00E0C0D0050AE50A70020509B4C219E509DA
:1000BB00B40114E508D394004004150880037508B7
:1000CB0007750900750A00D0D0D0E032120003E5A5
:1000DB00089000EC93F5A080F601080702090000D8
:0900EB00007FBFDFEFF7FBFDFE13
:00000001FF
