:1000000002011BE4F508F509D208E50890012793E1
:10001000FFF5A085A020A202820382015003020006
:10002000FB3008E6C20854F765207032F509E5098F
:10003000D39508500EC28012010ED28012010E0517
:100040000980EBE4F50912010E0509E509C39402E4
:1000500040F4C28012010ED28012010E80ACE5087D
:100060009001279354FB65207041F509E509D3956C
:1000700008500EC28012010ED28012010E050980B6
:10008000EBE4F50912010E0509E509C3940240F4F9
:10009000E4F509E509C39402400302000AC2801294
:1000A000010ED28012010E050980E8E508900127B3
:1000B0009354FD6520600302000AF509E509D39514
:1000C00008500EC28012010ED28012010E05098066
:1000D000EBE4F50912010E0509E509C3940240F4A9
:1000E000E4F509E509C39403400302000AC2801243
:1000F000010ED28012010E050980E8E508C39403C1
:10010000500405088003E4F508D20802000AE4FF61
:10011000E4FE0EBEBDFC0FBFC8F622787FE4F6D821
:0B012000FD758121020003EFDFBF7FAF
:00000001FF
