:1000000002001EE4F58BF58D53890F438920D2AB96
:05001000D2AFD28E22E8
:10001B000200AA787FE4F6D8FD75810C0200650218
:10002B00010CE493A3F8E493A34003F68001F208D8
:10003B00DFF48029E493A3F85407240CC8C333C41A
:10004B00540F4420C8834004F456800146F6DFE485
:10005B00800B010204081020408090015EE47E01B9
:10006B009360BCA3FF543F30E509541FFEE493A3F8
:10007B0060010ECF54C025E060A840B8E493A3FA0A
:10008B00E493A3F8E493A3C8C582C8CAC583CAF096
:10009B00A3C8C582C8CAC583CADFE9DEE780BEC074
:1000AB00E0C0D0050BE50B7002050A64C27004E5D5
:1000BB000A64017047E5B0B4FB1EC3E50964809484
:1000CB008750040509802FE509B40707750C010556
:1000DB00098023750900801BD3E509648094804057
:1000EB000415098011E5097007750C0115098006C7
:1000FB00750907750C00750A00750B00D0D0D0E0A0
:10010B003212000375A0FFE5B064FB6010E50870C8
:10011B000C750907F50AF50B7508018013E5B0B4EA
:10012B00FB11E508B4010CE4F509F50AF50BF5082C
:10013B0075A0FFE50C7017AF09EF3395E0FE746CFB
:10014B002FF58274013EF583E49352A080B975A01C
:10015B00FF80B4010900010C00010800020A000035
:09016B00007FBFDFEFF7FBFDFE92
:00000001FF
